:0300000002004CAF
:200008000000E2FBEAF2802C0000E0FBEAF08024E6B50202EBF62200E2B50202EBF22200DE
:20002800E0B50202EBF02230F6E0A88220F5D3EAC6F582228B822230F6E6A88220F5D980EE
:01004800CFE8
:0300A5000200490D
:030049000200A80A
:2000A8001200FB12015C900BA675F080120176120124AC82AD83AEF0FFC004C005C006C0CC
:2000C8000774BBC0E0740BC0E07480C0E07408C0E07400C0E07440C0E0120352E58124F624
:2000E800F58190000875F0401201769003E81200FC80BC22AE82AF837C007D00C3EC9EED40
:200108009F50147A787B001ABAFF011BEA4B70F70CBC00E80D80E5229002002275820012DB
:20012800012012039DAC82AD83AEF0FFC004C005C006C00790DB2375F0F9743E1201A1ACD5
:2001480082AD83AEF0FFE58124FCF5818C828D838EF0EF2275985053890F438920758DFD6C
:20016800D28ED2992285829910990280FB22AD82AE83AFF08D828E838FF0120B58FC60181B
:190188008C820DBD00010EC007C006C00512016DD005D006D00780DC22A5
:200BA60053797374656D20696E697469616C697A65640D0A0054656D703A20252E316620E3
:040BC600430D0A00D1
:2001A100120244BC00030203CAEF60FA30D502B2D1E583B4FF030203E0E582B4FF03020360
:2001C100E0258340072482400B0203CA24831450030203E0F582EA8DF0A4A8F0EA8EF0A476
:2001E10028F8E435F0F9EB8DF0A428E935F0F9E433CA8FF0A429F9EA35F0FAEBF88EF0A46D
:2002010029F9EA35F0FAE433FBEC8DF0A429F9EA35F0FAE43BFBE88FF0A42AFAEB35F0FB14
:20022100E433CCFD8EF0A42AFAEB35F0FBE43CFCED8FF0A42BFBEC35F0FC20E7031202729D
:030241000203A90C
:20024400AA82AB83A2F73392D1F5826002D2F7ACF0E58124F9F8E6FD08E6FE0886F008E61D
:0E026400A2F73392D5F5836002D2F7AFF022F5
:06007B00E478FFF6D8FD59
:200272007804EC7011E58224F8500AF582E4C9CACBFCD8EF22EC7820058220E713D582018B
:1302920022C3E933F9EA33FAEB33FBEC33FCD8EA15822299
:200059007900E94400601B7A00900BD5780175A000E493F2A308B8000205A0D9F4DAF2756D
:02007900A0FFE6
:200081007800E84400600A790175A000E4F309D8FC7800E84400600C7900900001E4F0A37D
:0400A100D8FCD9FAB4
:2002A500C01F85811FC082058105810581E51F24FBF8A91F0909E6F708E609F708E609F7B3
:2002C500A81F080886820886830886F0120B58FAA3120B58FBA3120B58FF74012AFCE43B58
:2002E500FD8F06A81F080886820886830886F0EC120B87A3ED120B87A3EE120B878A828B69
:20030500838FF0A81F08E6120B87851F81D01F2285821C85831D85F01E752D1C752E007596
:200325002F40851830851931851A32851B339002A512048FAE82AF83AB1CAC1DAD1E8B8263
:200345008C838DF0E4120B878E828F8322C01FE581F51F24F8F533E51F24FBF52D752E00BB
:20036500752F40E51F24F8F886300886310886329002A512048FAE82AF83E51F24FBF88668
:18038500030886040886058B828C838DF0E4120B878E828F83D01F22E4
:0C039D00E4AC83AB82FAF9748E020B7D95
:2003A900B98003EA13B34010EA2401FAE43BFBE43CFC50047C800582BC000EBB000BBA0098
:2003C90008E4F5F0F583F58222A2D1E582138CF092F78B838A8222E4F583F58275F080F458
:0F03E900A2D11322E4F583F58275F0C0747F2250
:2003F800AF82C023C024C0251204058007C021C0228F8222158115811581052BE4B52B02B8
:20041800052C22AF8274302FFF24C6500B74072FFFE52060034307208F820203F8E582FF3A
:20043800C4540FF582C00712041BD007740F5FF58202041B85824BAB26AC27AD28AE29AA71
:200458002A754D20EA2AF54CEE235401454CFAEB2BFBEC33FCED33FDEE33FEC3EA954B40FD
:2004780008EAC3954BFA430301D54DD88B268C278D288E298A2A22858221858322852D23C7
:20049800852E24852F25E4F52BF52CAD30AE31AF328D828E838FF0120B58FC74012DF530FB
:2004B800E43EF5318F32ECFF7003020B1CBF25028003020B14E4F534F535F536F537F5384F
:2004D800F539F53AF53BF53DF53EF53F7540FF7541FFAC30AD31AE328C828D838EF0120B22
:2004F80058F545A3AC82AD838C308D318E327425B545088545821203F8809074D025454025
:20051800030205B4E54524C650030205B474FFB5404BB54148C004C005C006853E4B853FD1
:200538004C90000AC006C005C004120B3BAA82AB83D004D005D006AE457D00EE2AFAED3B93
:20055800FBEA24D0F53EEB34FFF53FE53E453FD006D005D00470817535010204F0C004C0E9
:2005780005C00685404B85414C90000AC006C005C004120B3BAA82AB83D004D005D006ADAF
:20059800457E00ED2AFAEE3BFBEA24D0F540EB34FFF541D006D005D0040204F0742EB545D3
:2005B8001574FFB54005B5410280030204F0E4F540F5410204F0749F2545500EE54524853D
:2005D80040085345DF75200180037520007420B54503020681742BB5450302067B742DB507
:2005F800450280797442B545030206877443B545030206937444B545030208257446B5457A
:200618000302083C7448B545030204F07449B54503020825744AB545030204F0744CB54576
:20063800028052744FB5450302082D7450B545030207BA7453B5450280627454B5450302E7
:2006580004F07455B545030208327458B54503020837745AB545030204F0020841753401CC
:200678000204F07536010204F07537010204F07539010204F0753A010204F0E539600AE56F
:200698003314F989338706800BE53324FEFD8D338D0187068E821203F802084DE53324FD6F
:2006B800FE8E338E01870409870509870619198C268D278E288C828D838EF0120B238582ED
:2006D8004685834774FFB54009B54106854640854741E534703DC3E546953EE547953F5011
:2006F80032E53EC39546F53EE53F9547F53FAC3EAB3F8C028B061CBCFF011BEA4E60107585
:200718008220C004C0031203F8D003D00480E38C3E8B3FAD40AE41AA26AB27AC288A828B04
:20073800838CF0120B58FC6033C3E49D74808EF063F08095F050251DBDFF011E8C82C0064F
:20075800C0051203F8D005D006AA26AB27AC280ABA00010B8A268B278C2880BBE5347003E1
:2007780002084DC3E546953EE547953F400302084DE53EC39546F53EE53F9547F53FAE3E9B
:20079800AD3F8E038D041EBEFF011DEB4C7003020849758220C006C0051203F8D005D006E3
:2007B80080E0E53324FDFC8C338C01870209870309870419198A268B278C28AC28BC800038
:2007D80040047B438014BC600040047B50800BBC400040047B4980027B588B82C003120377
:2007F800F875823A1203F87582301203F87582781203F8D003BB4902800BBB50028006857F
:2008180027821204358526821204358028753801753D0A8020753D08801B753D0A80167586
:200838003D108011753B01800C8545821203F880048E3E8D3FE53B605BE53324FCFE8E333E
:200858008E0187030987040987050987061919198B268C278D288E297526CA75270B7528E4
:200878008085264885274985284A74012548FAE43549FBAE4A8A268B278E2885488285499B
:2008980083854AF0120B58FD70030204A38D821203F880CDE53D70030204A3E5396032E534
:2008B8003314F9893387067D007C007B008E268D278C288B29E5387072AB26AC27AD28AE2D
:2008D800297C007D007E008B268C278D288E29805AE53A6021E53324FCFE8E338E01870306
:2008F8000987040987050987061919198B268C278D288E298035E53324FEFE8E338E018742
:200918000509870619EE3395E0FCFB8D268E278C288B29E5387014AB26AC27AD28AE297D40
:20093800007E008B268C278D288E29E538602DAB26AC27AD28E52930E71FAB26AC27AD2871
:20095800AE29C3E49BFBE49CFCE49DFDE49EFE8B268C278D288E298003753800753C0179C6
:2009780053E4F548F549752A00853D82C00112044CD001E53C7013E52AC454F0FCE52AC44C
:20099800540F4204E74CF7198002A72A74012548F548E43549F549E53CB40100E433F53C23
:2009B800AA26AB27AC28AE29EA4B4C4E70B88944854842854943E53E453F7005753E01F529
:2009D8003FE535702FE534702BAA3EAB3FAE420E8E057E00C3ED9AEE9B5015758220C00360
:2009F800C0021203F8D002D0031ABAFF011B80DD8A3E8B3FE538601175822D1203F8153E7B
:200A180074FFB53E02153F802EE54245436028E536601175822B1203F8153E74FFB53E02A7
:200A3800153F8013E537600F7582201203F8153E74FFB53E02153FE534702FAE3EAD3F8EDB
:200A5800038D041EBEFF011DC3E5429BE5439C503AE53560047C3080027C208C82C006C042
:200A7800051203F8D005D00680D5C3E542953EE543953F500FE53EC39542F53EE53F954348
:200A9800F53F800BE4F53EF53F80048E3E8D3FA944AD42AE438D038E041DBDFF011EEB4CFA
:200AB800602FE53CB40100E433F53C700909E7C4540FF52A80078704740F5CF52A852A8281
:200AD800C006C005C00112041BD001D005D00680C4E53470030204A3AD3EAE3F8D038E0492
:200AF8001DBDFF011EEB4C70030204A3758220C006C0051203F8D005D00680E08F821203B3
:0B0B1800F80204A3852B82852C8322A9
:0B0BCA003C4E4F20464C4F41543E0073
:180B2300AA82AB83120B586003A380F8C3E5829AF582E5839BF5832295
:1D0B3B00E582854BF0A4C582C0F0854CF0A4D0F025F0C583854BF0A42583F58322B3
:0D004C00758153120BA2E58260030200498A
:1C0B580020F71430F6148883A88220F507E6A88375830022E280F7E49322E022AC
:130B7400FCABF0AA83A982749EC2D1F5821202720203A92F
:1B0B870020F71130F6138883A88220F509F6A8837583002280FEF280F5F0226D
:040BA2007582002236
:00000001FF
